{
  "_format": "hh-sol-artifact-1",
  "contractName": "Transactions",
  "sourceName": "contracts/Transactions.sol",
  "abi": [
    {
      "anonymous": false,
      "inputs": [
        {
          "indexed": false,
          "internalType": "address",
          "name": "from",
          "type": "address"
        },
        {
          "indexed": false,
          "internalType": "address",
          "name": "receiver",
          "type": "address"
        },
        {
          "indexed": false,
          "internalType": "uint256",
          "name": "amount",
          "type": "uint256"
        },
        {
          "indexed": false,
          "internalType": "string",
          "name": "message",
          "type": "string"
        },
        {
          "indexed": false,
          "internalType": "uint256",
          "name": "timestamp",
          "type": "uint256"
        }
      ],
      "name": "Transfer",
      "type": "event"
    },
    {
      "inputs": [
        {
          "internalType": "address payable",
          "name": "receiver",
          "type": "address"
        },
        {
          "internalType": "uint256",
          "name": "amount",
          "type": "uint256"
        },
        {
          "internalType": "string",
          "name": "message",
          "type": "string"
        }
      ],
      "name": "addToBlockchain",
      "outputs": [],
      "stateMutability": "nonpayable",
      "type": "function"
    },
    {
      "inputs": [],
      "name": "getAllTransactions",
      "outputs": [
        {
          "components": [
            {
              "internalType": "address",
              "name": "sender",
              "type": "address"
            },
            {
              "internalType": "address",
              "name": "receiver",
              "type": "address"
            },
            {
              "internalType": "uint256",
              "name": "amount",
              "type": "uint256"
            },
            {
              "internalType": "string",
              "name": "message",
              "type": "string"
            },
            {
              "internalType": "uint256",
              "name": "timestamp",
              "type": "uint256"
            }
          ],
          "internalType": "struct Transactions.TransferStruct[]",
          "name": "",
          "type": "tuple[]"
        }
      ],
      "stateMutability": "view",
      "type": "function"
    },
    {
      "inputs": [],
      "name": "getTransactionCount",
      "outputs": [
        {
          "internalType": "uint256",
          "name": "",
          "type": "uint256"
        }
      ],
      "stateMutability": "view",
      "type": "function"
    }
  ],
  "bytecode": "0x608060405234801561001057600080fd5b50610b44806100206000396000f3fe608060405234801561001057600080fd5b50600436106100415760003560e01c806327506f53146100465780632e7700f014610064578063eb12da4a14610082575b600080fd5b61004e61009e565b60405161005b91906107b6565b60405180910390f35b61006c61024f565b60405161007991906107d8565b60405180910390f35b61009c60048036038101906100979190610531565b610258565b005b60606001805480602002602001604051908101604052809291908181526020016000905b8282101561024657838290600052602060002090600502016040518060a00160405290816000820160009054906101000a900473ffffffffffffffffffffffffffffffffffffffff1673ffffffffffffffffffffffffffffffffffffffff1673ffffffffffffffffffffffffffffffffffffffff1681526020016001820160009054906101000a900473ffffffffffffffffffffffffffffffffffffffff1673ffffffffffffffffffffffffffffffffffffffff1673ffffffffffffffffffffffffffffffffffffffff168152602001600282015481526020016003820180546101ab906109cb565b80601f01602080910402602001604051908101604052809291908181526020018280546101d7906109cb565b80156102245780601f106101f957610100808354040283529160200191610224565b820191906000526020600020905b81548152906001019060200180831161020757829003601f168201915b50505050508152602001600482015481525050815260200190600101906100c2565b50505050905090565b60008054905090565b600160008082825461026a91906108af565b9250508190555060016040518060a001604052803373ffffffffffffffffffffffffffffffffffffffff1681526020018573ffffffffffffffffffffffffffffffffffffffff16815260200184815260200183815260200142815250908060018154018082558091505060019003906000526020600020906005020160009091909190915060008201518160000160006101000a81548173ffffffffffffffffffffffffffffffffffffffff021916908373ffffffffffffffffffffffffffffffffffffffff16021790555060208201518160010160006101000a81548173ffffffffffffffffffffffffffffffffffffffff021916908373ffffffffffffffffffffffffffffffffffffffff1602179055506040820151816002015560608201518160030190805190602001906103a39291906103f4565b506080820151816004015550507fc4b32d7ff75a51e487f3cbb5d3202f2efecca1f4c2b987e0039c1d3220b48a8333848484426040516103e795949392919061075c565b60405180910390a1505050565b828054610400906109cb565b90600052602060002090601f0160209004810192826104225760008555610469565b82601f1061043b57805160ff1916838001178555610469565b82800160010185558215610469579182015b8281111561046857825182559160200191906001019061044d565b5b509050610476919061047a565b5090565b5b8082111561049357600081600090555060010161047b565b5090565b60006104aa6104a584610818565b6107f3565b9050828152602081018484840111156104c6576104c5610ac0565b5b6104d1848285610989565b509392505050565b6000813590506104e881610ae0565b92915050565b600082601f83011261050357610502610abb565b5b8135610513848260208601610497565b91505092915050565b60008135905061052b81610af7565b92915050565b60008060006060848603121561054a57610549610aca565b5b6000610558868287016104d9565b93505060206105698682870161051c565b925050604084013567ffffffffffffffff81111561058a57610589610ac5565b5b610596868287016104ee565b9150509250925092565b60006105ac83836106c8565b905092915050565b6105bd81610953565b82525050565b6105cc81610905565b82525050565b6105db81610905565b82525050565b60006105ec82610859565b6105f6818561087c565b93508360208202850161060885610849565b8060005b85811015610644578484038952815161062585826105a0565b94506106308361086f565b925060208a0199505060018101905061060c565b50829750879550505050505092915050565b600061066182610864565b61066b818561088d565b935061067b818560208601610998565b61068481610acf565b840191505092915050565b600061069a82610864565b6106a4818561089e565b93506106b4818560208601610998565b6106bd81610acf565b840191505092915050565b600060a0830160008301516106e060008601826105c3565b5060208301516106f360208601826105c3565b506040830151610706604086018261073e565b506060830151848203606086015261071e8282610656565b9150506080830151610733608086018261073e565b508091505092915050565b61074781610949565b82525050565b61075681610949565b82525050565b600060a08201905061077160008301886105d2565b61077e60208301876105b4565b61078b604083018661074d565b818103606083015261079d818561068f565b90506107ac608083018461074d565b9695505050505050565b600060208201905081810360008301526107d081846105e1565b905092915050565b60006020820190506107ed600083018461074d565b92915050565b60006107fd61080e565b905061080982826109fd565b919050565b6000604051905090565b600067ffffffffffffffff82111561083357610832610a8c565b5b61083c82610acf565b9050602081019050919050565b6000819050602082019050919050565b600081519050919050565b600081519050919050565b6000602082019050919050565b600082825260208201905092915050565b600082825260208201905092915050565b600082825260208201905092915050565b60006108ba82610949565b91506108c583610949565b9250827fffffffffffffffffffffffffffffffffffffffffffffffffffffffffffffffff038211156108fa576108f9610a2e565b5b828201905092915050565b600061091082610929565b9050919050565b600061092282610929565b9050919050565b600073ffffffffffffffffffffffffffffffffffffffff82169050919050565b6000819050919050565b600061095e82610965565b9050919050565b600061097082610977565b9050919050565b600061098282610929565b9050919050565b82818337600083830152505050565b60005b838110156109b657808201518184015260208101905061099b565b838111156109c5576000848401525b50505050565b600060028204905060018216806109e357607f821691505b602082108114156109f7576109f6610a5d565b5b50919050565b610a0682610acf565b810181811067ffffffffffffffff82111715610a2557610a24610a8c565b5b80604052505050565b7f4e487b7100000000000000000000000000000000000000000000000000000000600052601160045260246000fd5b7f4e487b7100000000000000000000000000000000000000000000000000000000600052602260045260246000fd5b7f4e487b7100000000000000000000000000000000000000000000000000000000600052604160045260246000fd5b600080fd5b600080fd5b600080fd5b600080fd5b6000601f19601f8301169050919050565b610ae981610917565b8114610af457600080fd5b50565b610b0081610949565b8114610b0b57600080fd5b5056fea2646970667358221220ff33daf703a51f24e0154981869fb9d5eff45b3b238055179e1520569383534f64736f6c63430008070033",
  "linkReferences": {},
  "deployedLinkReferences": {}
}